{
  "_format": "hh-sol-artifact-1",
  "contractName": "TokenVesting",
  "sourceName": "contracts/TokenVesing.sol",
  "abi": [
    {
      "inputs": [
        {
          "internalType": "address",
          "name": "_token",
          "type": "address"
        }
      ],
      "stateMutability": "nonpayable",
      "type": "constructor"
    },
    {
      "inputs": [
        {
          "internalType": "address",
          "name": "beneficiary",
          "type": "address"
        },
        {
          "internalType": "uint256",
          "name": "start",
          "type": "uint256"
        },
        {
          "internalType": "uint256",
          "name": "duration",
          "type": "uint256"
        },
        {
          "internalType": "uint256",
          "name": "totalAmount",
          "type": "uint256"
        }
      ],
      "name": "addBeneficiary",
      "outputs": [],
      "stateMutability": "nonpayable",
      "type": "function"
    },
    {
      "inputs": [],
      "name": "claimTokens",
      "outputs": [],
      "stateMutability": "nonpayable",
      "type": "function"
    },
    {
      "inputs": [
        {
          "internalType": "address",
          "name": "beneficiary",
          "type": "address"
        }
      ],
      "name": "getReleasableAmount",
      "outputs": [
        {
          "internalType": "uint256",
          "name": "",
          "type": "uint256"
        }
      ],
      "stateMutability": "view",
      "type": "function"
    },
    {
      "inputs": [],
      "name": "token",
      "outputs": [
        {
          "internalType": "address",
          "name": "",
          "type": "address"
        }
      ],
      "stateMutability": "view",
      "type": "function"
    }
  ],
  "bytecode": "0x608060405234801561001057600080fd5b50604051610da4380380610da4833981810160405281019061003291906100dc565b80600160006101000a81548173ffffffffffffffffffffffffffffffffffffffff021916908373ffffffffffffffffffffffffffffffffffffffff16021790555050610109565b600080fd5b600073ffffffffffffffffffffffffffffffffffffffff82169050919050565b60006100a98261007e565b9050919050565b6100b98161009e565b81146100c457600080fd5b50565b6000815190506100d6816100b0565b92915050565b6000602082840312156100f2576100f1610079565b5b6000610100848285016100c7565b91505092915050565b610c8c806101186000396000f3fe608060405234801561001057600080fd5b506004361061004c5760003560e01c80632afd1a7d1461005157806348c54b9d14610081578063b095e1291461008b578063fc0c546a146100a7575b600080fd5b61006b60048036038101906100669190610620565b6100c5565b6040516100789190610666565b60405180910390f35b610089610114565b005b6100a560048036038101906100a091906106ad565b61025e565b005b6100af6104ab565b6040516100bc9190610723565b60405180910390f35b600061010d6000808473ffffffffffffffffffffffffffffffffffffffff1673ffffffffffffffffffffffffffffffffffffffff1681526020019081526020016000206104d1565b9050919050565b60008060003373ffffffffffffffffffffffffffffffffffffffff1673ffffffffffffffffffffffffffffffffffffffff16815260200190815260200160002090506000610161826104d1565b9050600081116101a6576040517f08c379a000000000000000000000000000000000000000000000000000000000815260040161019d9061079b565b60405180910390fd5b6101b9818361055390919063ffffffff16565b600160009054906101000a900473ffffffffffffffffffffffffffffffffffffffff1673ffffffffffffffffffffffffffffffffffffffff1663a9059cbb33836040518363ffffffff1660e01b81526004016102169291906107bb565b6020604051808303816000875af1158015610235573d6000803e3d6000fd5b505050506040513d601f19601f82011682018060405250810190610259919061081c565b505050565b600073ffffffffffffffffffffffffffffffffffffffff168473ffffffffffffffffffffffffffffffffffffffff16036102cd576040517f08c379a00000000000000000000000000000000000000000000000000000000081526004016102c490610895565b60405180910390fd5b60008060008673ffffffffffffffffffffffffffffffffffffffff1673ffffffffffffffffffffffffffffffffffffffff1681526020019081526020016000206002015414610351576040517f08c379a000000000000000000000000000000000000000000000000000000000815260040161034890610901565b60405180910390fd5b42831015610394576040517f08c379a000000000000000000000000000000000000000000000000000000000815260040161038b9061096d565b60405180910390fd5b600082116103d7576040517f08c379a00000000000000000000000000000000000000000000000000000000081526004016103ce906109ff565b60405180910390fd5b6000811161041a576040517f08c379a000000000000000000000000000000000000000000000000000000000815260040161041190610a91565b60405180910390fd5b604051806080016040528084815260200183815260200182815260200160008152506000808673ffffffffffffffffffffffffffffffffffffffff1673ffffffffffffffffffffffffffffffffffffffff1681526020019081526020016000206000820151816000015560208201518160010155604082015181600201556060820151816003015590505050505050565b600160009054906101000a900473ffffffffffffffffffffffffffffffffffffffff1681565b600081600001544210156104e8576000905061054e565b60008260000154426104fa9190610ae0565b9050600083600101549050600081831061051a5784600201549050610538565b8183866002015461052b9190610b14565b6105359190610b85565b90505b8460030154816105489190610ae0565b93505050505b919050565b61055c826104d1565b81111561059e576040517f08c379a000000000000000000000000000000000000000000000000000000000815260040161059590610c02565b60405180910390fd5b808260030160008282546105b29190610c22565b925050819055505050565b600080fd5b600073ffffffffffffffffffffffffffffffffffffffff82169050919050565b60006105ed826105c2565b9050919050565b6105fd816105e2565b811461060857600080fd5b50565b60008135905061061a816105f4565b92915050565b600060208284031215610636576106356105bd565b5b60006106448482850161060b565b91505092915050565b6000819050919050565b6106608161064d565b82525050565b600060208201905061067b6000830184610657565b92915050565b61068a8161064d565b811461069557600080fd5b50565b6000813590506106a781610681565b92915050565b600080600080608085870312156106c7576106c66105bd565b5b60006106d58782880161060b565b94505060206106e687828801610698565b93505060406106f787828801610698565b925050606061070887828801610698565b91505092959194509250565b61071d816105e2565b82525050565b60006020820190506107386000830184610714565b92915050565b600082825260208201905092915050565b7f4e6f20746f6b656e7320617661696c61626c6520666f722072656c6561736500600082015250565b6000610785601f8361073e565b91506107908261074f565b602082019050919050565b600060208201905081810360008301526107b481610778565b9050919050565b60006040820190506107d06000830185610714565b6107dd6020830184610657565b9392505050565b60008115159050919050565b6107f9816107e4565b811461080457600080fd5b50565b600081519050610816816107f0565b92915050565b600060208284031215610832576108316105bd565b5b600061084084828501610807565b91505092915050565b7f496e76616c69642062656e656669636961727920616464726573730000000000600082015250565b600061087f601b8361073e565b915061088a82610849565b602082019050919050565b600060208201905081810360008301526108ae81610872565b9050919050565b7f42656e656669636961727920616c726561647920657869737473000000000000600082015250565b60006108eb601a8361073e565b91506108f6826108b5565b602082019050919050565b6000602082019050818103600083015261091a816108de565b9050919050565b7f53746172742074696d65206d75737420626520696e2074686520667574757265600082015250565b600061095760208361073e565b915061096282610921565b602082019050919050565b600060208201905081810360008301526109868161094a565b9050919050565b7f4475726174696f6e206d7573742062652067726561746572207468616e207a6560008201527f726f000000000000000000000000000000000000000000000000000000000000602082015250565b60006109e960228361073e565b91506109f48261098d565b604082019050919050565b60006020820190508181036000830152610a18816109dc565b9050919050565b7f546f74616c20616d6f756e74206d75737420626520677265617465722074686160008201527f6e207a65726f0000000000000000000000000000000000000000000000000000602082015250565b6000610a7b60268361073e565b9150610a8682610a1f565b604082019050919050565b60006020820190508181036000830152610aaa81610a6e565b9050919050565b7f4e487b7100000000000000000000000000000000000000000000000000000000600052601160045260246000fd5b6000610aeb8261064d565b9150610af68361064d565b9250828203905081811115610b0e57610b0d610ab1565b5b92915050565b6000610b1f8261064d565b9150610b2a8361064d565b9250828202610b388161064d565b91508282048414831517610b4f57610b4e610ab1565b5b5092915050565b7f4e487b7100000000000000000000000000000000000000000000000000000000600052601260045260246000fd5b6000610b908261064d565b9150610b9b8361064d565b925082610bab57610baa610b56565b5b828204905092915050565b7f496e73756666696369656e742076657374656420746f6b656e73000000000000600082015250565b6000610bec601a8361073e565b9150610bf782610bb6565b602082019050919050565b60006020820190508181036000830152610c1b81610bdf565b9050919050565b6000610c2d8261064d565b9150610c388361064d565b9250828201905080821115610c5057610c4f610ab1565b5b9291505056fea26469706673582212202650750152babcca284b827a3d008b7243da4aa99dee2df785e567062708f1df64736f6c634300081b0033",
  "linkReferences": {},
  "deployedLinkReferences": {}
}